:100000000C94540B0C949B0B0C949B0B0C949B0B1F
:100010000C949B0B0C949B0B0C949B0B0C949B0BC8
:100020000C949B0B0C949B0B0C947A1D0C94B61C9B
:100030000C94BB220C949B0B0C949B0B0C949B0B71
:100040000C949B0B0C949B0B0C949B0B0C949B0B98
:100050000C949B0B0C945F220C949B0B0C949B0BAD
:100060000C949B0B0C949B0B0C949B0B0C949B0B78
:100070000C949B0B0C949B0B0C949B0B0C949B0B68
:100080000C949B0B0C949B0B0C949B0B0C949B0B58
:100090000C949B0B0C949B0B0C949B0B0C949B0B48
:1000A0000C949B0B0C949B0B0C949B0BCF15CF15B6
:1000B0000A160A162F16B917B917B9174B162F17A4
:1000C00041174117CC1AF31A8E1CF31A8E1C3B1BD6
:1000D0005E1B8E1C461C5A1C5D29602963296629FB
:1000E00069296C296F29632B632B762B762B6C2B5C
:1000F000762B762B762B632B632B712B762B762B23
:10010000712B0000001808730100002B000000296B
:1001100000000006087401000004000049270000E8
:1001200000030875010000E0000000290000300015
:100130000876010000E6000000290000180008779A
:10014000010000E70000002900000C000878010011
:1001500000E400000029000003000879010000E02D
:100160000000002900800100087A010000E300007F
:10017000002900C00000087B010000E20000002907
:1001800000300000087C0100004900000029000048
:100190000020087D0100002A0003902800000010C4
:1001A000087E0100002C0002902800000008087F53
:1001B0000100002800E5C4280000000408800100B8
:1001C00000E1000000290000000208810100002C6D
:1001D000000290280000000108820100002A0003AC
:1001E00090280000800008830100004C00000029D6
:1001F00000004000088401000038000000290000D1
:1002000020000885010000370000002900001000D0
:100210000886010000360000002900000800088759
:1002200001000010000000290000040008880100FF
:1002300000110000002900000200088901000005EB
:100240000000002900000100088A010000190000D8
:10025000002900800000088B010000060000002932
:1002600000400000088C0100001B00000029002055
:100270000000088D0100001D000000290010000092
:10028000088E010000E10000002900088000088FAE
:10029000010000E700000029000440000890010070
:1002A0000033000000290002200008910100000F27
:1002B000000000290001100008920100000E00005B
:1002C00000298000080008930100000D00000029AB
:1002D0004000040008940100000B000000292000E9
:1002E000020008950100000A00000029100001002A
:1002F0000896010000090000002908800000089706
:1003000001000007000000290440000008980100D7
:1003100000160000002902200000089901000004D6
:100320000000002901100000089A010000290000C7
:10033000002900080000089B010000E400000029DB
:1003400000040000089C01000013000000290002C6
:100350000000089D010000120000002900010000BB
:10036000089E0100000C0000002980000000089F8A
:1003700001000018000000294000000008A0010052
:10038000001C000000292000000008A10100001747
:10039000000000291000000008A201000015000064
:1003A00000290800000008A301000008000000293F
:1003B0000400000008A40100001A00000029020047
:1003C000000008A501000014000000290100000041
:1003D00008A60100002B000000290000002007A74C
:1003E0000100002A000390280000001007A8010067
:1003F000002C000290280000000807A90100002836
:1004000000E5C4280000000407AA010000E1000084
:1004100000290000000207AB0100002C00000029A9
:100420000000000107AC01000002000049270000A5
:10043000800007AD0100004C0000002900004000D2
:1004400007AE01000038000000290000200007AFBF
:1004500001000037000000290000100007B0010073
:100460000036000000290000080007B1010000105C
:10047000000000290000040007B20100000E000087
:1004800000290000020007B3010000050000002958
:100490000000010007B401000019000000290080DD
:1004A000000007B501000006000000290040000020
:1004B00007B60100001B000000290020000007B75C
:1004C0000100001D000000290010000007B8010015
:1004D00000E1000000290008800007B901000001C8
:1004E00000003C270110000007BA010000290000AD
:1004F00000290008000007BB010000E400000029FB
:100500000004000007BC01000027000000290002D1
:10051000000007BD010000260000002900010000C6
:1005200007BE01000025000000298000000007BF71
:1005300001000024000000294000000007C0010065
:100540000023000000292000000007C10100002254
:10055000000000291000000007C201000021000077
:1005600000290800000007C3010000200000002946
:100570000400000007C40100001F00000029020061
:10058000000007C50100001E000000290100000056
:1005900007C60100002B000000290000002006C74C
:1005A0000100002A000390280000001006C8010086
:1005B000002C000290280000000806C90100002855
:1005C00000E5C4280000000406CA010000E10000A4
:1005D00000290000000206CB0100002C00000029C9
:1005E0000000000106CC01000007000049270000C0
:1005F000800006CD0100004C0000002900004000F2
:1006000006CE01000012000000290000200006CFE5
:100610000100000C000000290000100006D00100BD
:100620000008000000290000080006D101000011A8
:10063000000000290000040006D20100000B0000A9
:1006400000290000020006D3010000070000002975
:100650000000010006D401000017000000290080FE
:10066000000006D50100001600000029004000002F
:1006700006D601000015000000290020000006D762
:1006800001000004000000290010000006D801004D
:1006900000E1000000290008800006D901000001E7
:1006A00000003C270110000006DA010000290000CC
:1006B00000290008000006DB010000E4000000291A
:1006C0000004000006DC01000033000000290002E5
:1006D000000006DD0100001C0000002900010000F0
:1006E00006DE01000018000000298000000006DF7F
:1006F0000100000F000000294000000006E001009A
:10070000000D000000292000000006E10100000AA1
:10071000000000291000000006E2010000130000A4
:1007200000290800000006E301000009000000297C
:100730000400000006E40100001A00000029020085
:10074000000006E50100001400000029010000007F
:1007500006E60100002B000000290000800005E7EC
:10076000010000AA000000290008800005E801003F
:1007700000A8000000290008000005E9010000A908
:10078000000000290004000005EA010000AB0000A1
:1007900000290002000005EB010000AE0000002966
:1007A0000001000005EC010000AE000000298000FF
:1007B000000005ED010000AC000000290000300041
:1007C00004EE010000E6000000290000180004EF1C
:1007D000010000E70000002900000C0004F0010007
:1007E00000E4000000290000030004F1010000E023
:1007F000000000290080010004F2010000E3000075
:10080000002900C0000004F3010000E200000029FC
:100810000000800004F4010000E500000029000051
:10082000200004F50100004F000000290000100026
:1008300004F601000051000000290000080004F740
:1008400001000050000000290000020004F901F836
:1008500001000000E00B0000010004FA0100004E5E
:10086000000000290080000004FB0100005100008E
:1008700000290040000004FC0100004D0000002998
:100880000020000004FE01FD01000000000C00102B
:10089000000004FF010000E1000000290002200028
:1008A00004000200004F00000029000110000401B4
:1008B000020000510000002980000800040202002C
:1008C000005000000029200002000404020302007E
:1008D0000000200C1000010004050200004F000081
:1008E00000290880000004060200005100000029D1
:1008F000044000000407020000500000002902200C
:1009000000000409020802000000400C0110000071
:10091000040A020000490000002900010000040B45
:10092000020000520000002920000000040D020C0B
:1009300002000000600C10000000040E0200004BDA
:100940000000002908000000040F0200005200000F
:1009500000290400000004100200004A00000029E1
:1009600002000000041202110200000059270000DA
:1009700030000313020000E6000000290000180008
:100980000314020000E70000002900000C0003151A
:10099000020000E40000002900000300031602002A
:1009A00000E000000029008001000317020000E3BE
:1009B0000000002900C000000318020000E200004F
:1009C00000290000002003190200002A000000296D
:1009D00000000010031A0200002C00000029000093
:1009E0000002031B0200002C00000029000000018F
:1009F000031C0200002A0000002900008000031DE3
:100A0000020000E60000002900004000031E020072
:100A100000380200002900002000031F02000031FE
:100A2000020000290000100003200200002502003F
:100A30000029000008000321020000240200002910
:100A4000000004000322020000230200002900002D
:100A5000020003230200002202000029000001001E
:100A60000324020000210200002900800000032569
:100A700002000020020000290040000003260200BE
:100A8000001F020000290020000003270200001EB2
:100A900002000029000880000328020000E700008F
:100AA0000029000440000329020000310000002951
:100AB00000022000032A0200002E0200002900018B
:100AC0001000032B020000340200002980000800FF
:100AD000032C0200002E0000002940000400032D1A
:100AE000020000310000002920000200032E020055
:100AF000002D0200002910000100032F0200003326
:100B000002000029088000000330020000340000C9
:100B100000290440000003310200002D00000029DC
:100B20000220000003320200003502000029000804
:100B300000000333020000E400000029000400006C
:100B400003340200003802000029000200000335CF
:100B500002000030000000290001000003360200FE
:100B60000030020000298000000003370200002747
:100B70000200002940000000033802000037020094
:100B8000002920000000033902000036020000297D
:100B900010000000033A02000026020000290800AD
:100BA0000000033B0200002F0200002904000000A7
:100BB000033C0200002F0000002902000000033D5A
:100BC000020000350000002900C00300023F023E81
:100BD00002000000DF2700003C000241024002004A
:100BE00000000128000060000242020000450000F1
:100BF0000029000030000243020000E60000002946
:100C0000000018000244020000E700000029000074
:100C10000C000245020000E400000029000003006F
:100C20000246020000E000000029008001000247A7
:100C3000020000E30000002900C00000024802009A
:100C400000E20000002900600000024902000044A8
:100C50000000002900000020024A0200002A0000D3
:100C6000002900000010024B0200002C00000029A7
:100C700000000008024C02000028000000290000CB
:100C80000004024D020000E50000002900000002FF
:100C9000024E0200002C0000002900000001024F5B
:100CA0000200002A0000002900008000025002001B
:100CB00000E500000029000040000251020000434E
:100CC0000000002900002000025202000042000043
:100CD000002900001000025302000041000000291A
:100CE000000008000254020000400000002900003B
:100CF000040002550200003F00000029000002002D
:100D000002560200003E00000029000001000257C8
:100D10000200003D0000002900800000025802008F
:100D2000003C000000290040000002590200003B86
:100D30000000002900200000025A0200003A0000D2
:100D4000002900100000025B020000E10000002901
:100D500000022000025C0200002E020000290001B7
:100D60001000025D0200002502000029800008003A
:100D7000025E0200002E0000002904400000025F15
:100D80000200002D0000002900080000026002009F
:100D90000027020000290004000002610200002771
:100DA000000000290002000002620200002600008C
:100DB0000029000100000263020000250000002954
:100DC00080000000026402000024000000294000AE
:100DD000000002650200002300000029200000003E
:100DE00002660200002200000029100000000267D5
:100DF0000200002100000029080000000268020033
:100E00000020000000290400000002690200001F09
:100E10000000002902000000026A0200001E00001B
:100E2000002901000000026B0200002602000029D8
:100E30007E000000016C0200000800003C27988141
:100E40001900016D0200000100000E2808C13900E0
:100E5000016E0200000600003C27008003000170C4
:100E6000026F020000007F2700001C000172027167
:100E7000020000009F2700C00300017402730200FB
:100E80000000BF2700003C00017602750200000050
:100E9000E12700E00100017702000005000049277A
:100EA0000000001801780200002B0000002900005B
:100EB0000006017902000004000049270000000339
:100EC000017A020000E00000002900003000017BF0
:100ED000020000E60000002900001800017C02006A
:100EE00000E70000002900000C00017D020000E482
:100EF0000000002900000300017E020000E0000065
:100F0000002900800100017F020000E300000029A9
:100F100000C000000180020000E200000029003053
:100F200000000181020000490000002900000020AB
:100F300001820200002A00039028000000100183B3
:100F40000200002C0002902800000008018402002A
:100F5000002800E5C428000000040185020000E12B
:100F6000000000290000000201860200002C00029F
:100F700090280000000101870200002A0003902849
:100F80000000800001880200004C000000290000E1
:100F90004000018902000038000000290000200004
:100FA000018A020000370000002900001000018BB8
:100FB000020000360000002900000800018C020039
:100FC00000100000002900000400018D0200000E46
:100FD0000000002900000200018E02000005000050
:100FE000002900000100018F020000190000002903
:100FF000008000000190020000060000002900406F
:10100000000001910200001B0000002900200000E8
:1010100001920200001D0000002900100000019351
:10102000020000E100000029000880000194020095
:1010300000E70000002900044000019502000012B2
:10104000000000290002200001960200000C0000B0
:10105000002900011000019702000008000000298B
:1010600080000800019802000011000000294000E3
:10107000040001990200000B00000029200002007A
:10108000019A020000070000002910000100019BE6
:10109000020000170000002908800000019C0200E7
:1010A00000160000002904400000019D0200001508
:1010B0000000002902200000019E02000004000040
:1010C000002901100000019F0200002900000029F2
:1010D0000008000001A0020000E400000029000454
:1010E000000001A1020000330000002900020000FE
:1010F00001A20200001C000000290001000001A361
:1011000002000018000000298000000001A4020075
:10111000000F000000294000000001A50200000DA2
:10112000000000292000000001A60200000A0000C3
:1011300000291000000001A7020000130000002990
:101140000800000001A802000009000000290400B6
:10115000000001A90200001A00000029020000009E
:1011600001AA02000014000000290100000001ABE8
:101170000200002B000000290000001200AC020059
:10118000002900000029077EE00000AD02000000F9
:10119000000003280118800000AE020000000000DB
:1011A0002E27033CC00000AF020000000000860CA8
:1011B0006000060000B002000000000022270000CE
:1011C000045D105D1A5D0000055D115D195D000094
:1011D000065D125D1B5D0000075D135D00000000F1
:1011E000085D145D00000000095D155D0000000051
:1011F0000000000000000000035D0F5D185D0000AE
:10120000025D0E5D175D0000015D0D5D165D000065
:10121000005D0C5D00000000FF5C0B5D0000000045
:10122000FE5C0A5D000000000000000000000000FD
:10123000165A175A185A00001A5A1B5A025A000016
:101240001C5A1D5A195A00001E5A1F5A000000004D
:10125000205A215A00000000225A295A000000009A
:101260000000000000000000115A125A015A00004C
:101270000D5A0E5A105A00000B5A0C5A0F5A000001
:10128000095A0A5A00000000075A085A00000000D4
:101290001050005A00000000000000000000B011D3
:1012A000A2119411861178116A115C114E1140112E
:1012B0003211241116110811FA10EC10DE10D010A2
:1012C000C210B410A61098108A107C106E10601016
:1012D00052104410361028101A100C10FE0FF00F88
:1012E000E20FD40FC60FB80FAA0F9C0F8E0F800FFE
:1012F000720F640F560F480F3A0F2C0F1E0F100F6E
:10130000020FF40EE60ED80ECA0EBC0EAE0EA00EE4
:10131000920E840E760E680E5A0E4C0E3E0E300E55
:10132000220E140E060EF80DEA0DDC0DCE0DC00DCA
:10133000B20DA40D960D880D7A0D6C0D5E0D500D3D
:10134000420D340D260D180D0A0DFC0CEE0CE00CB0
:10135000D20CC40CB60CA80C9A0C8C0C7E0C700C25
:10136000620C540C460C380C2A0C1C0C0E0C000C95
:10137000F20BE40BD60BC80BBA0BAC0B9E0B900B0D
:10138000820B740B660B580B4A0B3C0B2E0B200B7D
:10139000120B040BF60AE80ADA0ACC0ABE0AB00AF3
:1013A000A20A940A860A780A6A0A5C0A4E0A400A65
:1013B000320A240A160A080AFA09EC09DE09D009D9
:1013C000C209B409A60998098A097C096E0960094D
:1013D00052094409360928091A090C09FE08F008BF
:1013E000E208D408C608B808AA089C088E08800835
:1013F00072086408560848083A082C081E081008A5
:101400000208F407E607D807CA07BC07AE07A0071B
:1014100092078407760768075A074C073E0730078C
:10142000220714070607F806EA06DC06CE06C00601
:10143000B206A406960688067A066C065E06500674
:1014400042063406260618060A06FC05EE05E005E7
:10145000D205C405B605A8059A058C057E0570055C
:1014600062055405460538052A051C050E050005CC
:10147000F204E404D604C804BA04AC049E04900444
:1014800082047404660458044A043C042E042004B4
:1014900012040404F603E803DA03CC03BE03B0032A
:1014A000A2039403860378036A035C034E0340039C
:1014B0003203240316030803FA02EC02DE02D00210
:1014C000C202B402A60298028A027C026E02600284
:1014D00052024402360228021A020C02FE01F001F6
:1014E000E201D401C601B801AA019C018E0180016C
:1014F00072016401560148013A012C011E011001DC
:10150000020100D0D0D0D0D0D001010204081020B8
:101510004142444848000000484850608182848825
:1015200090A0C1C2C4D0D0D0D0D0D0C8000000009C
:1015300000000000000000000000000000000000AB
:10154000000005010906A1018501050719E029E749
:101550001500250195087501810295017508810125
:101560000507190029FF150026FF0095067508815B
:101570000005081901290595057501910295017568
:10158000039101C005010980A10185031A81002A88
:101590008300160100260300950175108100C00527
:1015A0000C0901A10185041A01002A9C0216010000
:1015B000269C02950175108100C005010906A10154
:1015C0008505050719E029E715002501950875012E
:1015D00081020507190029EF1500250195F0750115
:1015E00081020508190129059505750191029501EA
:1015F00075039101C009025F00030100A0FA09040C
:101600000000010301010009211101000122B300C2
:101610000705810320000A080B01020202010009EC
:10162000040100010202010005240010010424024B
:10163000020524060102070582030800FF090402CF
:1016400000020A00000007050402100005070583D8
:101650000210000512011001EF020108EDFE371320
:101660000100010203010403300000000E034700E3
:1016700065006F00720067006900000026036700C4
:1016800020004800650061007600790020004900D4
:101690006E006400750073007400720069006500DC
:1016A000730000000403090411241FBECFEFDAE029
:1016B000DEBFCDBF04B603FE27C080911804909111
:1016C0001904A0911A04B0911B048730904BA740D5
:1016D000B04BD1F4109218041092190410921A040D
:1016E00010921B0414BE84B7877F84BF0FB6F89492
:1016F000A8958091600088618093600010926000DE
:101700000FBEE0E0F8E3099511E0A0E0B1E0E0EA07
:10171000FCE502C005900D92A836B107D9F724E088
:10172000A8E6B1E001C01D92A831B207E1F70E941E
:10173000FD1F0C944E2E0C94000090915F0392FFBD
:101740000DC0282F2871283019F4877F846006C0C7
:10175000282F2471243011F48B7F886093FF0DC0F3
:10176000282F2871283119F4877E846106C0282F1C
:101770002471243111F48B7E88612091600320FF55
:101780000DC0382F3871383019F4877F816006C05A
:10179000382F3171313011F48E7F886021FF0DC0F8
:1017A000282F2871283119F4877E816106C0282FDF
:1017B0002171213111F48E7E886194FD877E089518
:1017C000DC011596ED91FC9116978081843049F0EB
:1017D00018F4823031F00895883019F08B3041F0E0
:1017E000089580EE0E94102C8FE40E94102C06C0F9
:1017F00080EE0E94B42B8FE40E94B42B0C94C02383
:10180000DC011596ED91FC9116978081843049F0AA
:1018100018F4823031F00895883019F08B3041F09F
:10182000089580EE0E94102C80E50E94102C06C0C6
:1018300080EE0E94B42B80E50E94B42B0C94C02350
:10184000DC011596ED91FC9116978081843049F06A
:1018500018F4823031F00895883019F08B3041F05F
:10186000089581EE0E94102C8FE40E94102C06C077
:1018700081EE0E94B42B8FE40E94B42B0C94C02301
:10188000DC011596ED91FC9116978081843049F02A
:1018900018F4823031F00895883019F08B3041F01F
:1018A000089581EE0E94102C80E50E94102C06C045
:1018B00081EE0E94B42B80E50E94B42B0C94C023CF
:1018C000DC011596ED91FC9116978081843049F0EA
:1018D00018F4823031F00895883019F08B3059F0C7
:1018E000089581EE0E94102C80EE0E94102C8FE44F
:1018F0000E94102C09C081EE0E94B42B80EE0E9441
:10190000B42B8FE40E94B42B0C94C0230F931F932D
:10191000CF93DF93CDB7DEB72E970FB6F894DEBF27
:101920000FBECDBFDC011596ED91FC91169780811D
:10193000823051F50EE912E1F801659174914EE0A3
:1019400050E0CE0101960E94F12DEE81FF811082C0
:10195000E885F985309709F010820E5F1F4FB5E1D9
:1019600002301B0749F70E94882B0E94C02381E0A8
:101970008093000110926C0110926B0110926A0129
:1019800010926901109268012E960FB6F894DEBF8E
:101990000FBECDBFDF91CF911F910F9108951F937F
:1019A000CF93DF93CDB7DEB767970FB6F894DEBF5E
:1019B0000FBECDBF4B8B5C8B6D8B7E8B8F8B86E090
:1019C0009E01235F3F4FD901E82F1D92EA95E9F769
:1019D00095E0FE017396D90101900D929A95E1F779
:1019E000F901DE01179601900D928A95E1F7CE017B
:1019F00007960E94522581113EC086E0FE0137966F
:101A0000DE01119601900D928A95E1F7FF81E8853C
:101A10006A857B856115710531F0EF3F31F481E016
:101A2000FF3F19F403C081E001C080E080FD23C0C6
:101A30002091A80330E0C901019687709927409151
:101A4000D90350E08417950779F1F983EA837D8300
:101A50006C8396E0929FD001939FB00D1124A755FF
:101A6000BC4FFE01319601900D929A95E1F780935B
:101A7000A8030E94E02416E08091D9039091A80366
:101A80008917F9F0189FC001112487559C4F0E94B7
:101A900052258823B1F08091D90390E00196877098
:101AA00099278093D903E8CF0E94882B1092A8032E
:101AB0001092D903E2EAF3E086E0DF011D928A95F5
:101AC000E9F767960FB6F894DEBF0FBECDBFDF9182
:101AD000CF911F91089520917101309172012817C3
:101AE000390771F09093720180937101E091610365
:101AF000F0916203309721F00084F185E02D099484
:101B0000089520916F01309170012817390771F005
:101B10009093700180936F01E0916103F0916203F3
:101B2000309721F00680F781E02D09940895E09127
:101B30006103F0916203309721F00190F081E02D74
:101B4000099480E008950F931F93CF93DF93C62FDE
:101B5000D42F122FFC0182818823C9F06093E30205
:101B60000E94AF2290936E0180936D0180E28C0FF2
:101B7000883008F05EC0C77081E001C0880FCA9548
:101B8000EAF7DF91CF911F910F910C94AA2B8091CE
:101B9000E30268133EC080916D0190916E010E9436
:101BA0008522883C9105A8F500E20D0FCD17B9F00C
:101BB00080E28C0F883040F4C77081E001C0880F4C
:101BC000CA95EAF70E949F2B083048F481E09D2FC8
:101BD000977001C0880F9A95EAF70E94AA2B812F6F
:101BE0000E94102C193349F4FFEF27EE83E0F150E7
:101BF00020408040E1F700C00000812F0E94B42BFC
:101C00000830B8F4D77081E001C0880FDA95EAF7A0
:101C10000AC080E28C0F883060F4C77081E001C098
:101C2000880FCA95EAF7DF91CF911F910F910C941D
:101C30009F2BDF91CF911F910F91089586E0E6EDE4
:101C4000F2E0DF01982F1D929A95E9F7ECEDF2E0B2
:101C5000DF011D928A95E9F70895CF93C82F0E945E
:101C60001E0EC0935E036C2F8DE090E0CF910C941C
:101C7000082ECF93DF9300D000D01F92CDB7DEB7F0
:101C80006B837C838D838C819D81892B31F05F3FB9
:101C900031F481E04F3F19F403C081E001C080E0DE
:101CA00080FD02C08B8102C080E090E081700F90C7
:101CB0000F900F900F900F90DF91CF910895CF93D9
:101CC000DF93E72FF0E02EE0829FE00DF11D11245D
:101CD000EE0FFF1FEE0FFF1FE60FF11DEE0FFF1FB0
:101CE000E254FE4EC591D491CE01C238D10569F1BE
:101CF000B0F4C133D10509F475C048F4C932D10537
:101D000009F469C0CA32D10509F473C079C0C5337A
:101D1000D10509F459C0C933D105B9F071C0C33E2A
:101D2000D10571F138F4C03ED105B1F0C23ED10504
:101D300011F166C0C63ED105B9F1C73ED105C9F162
:101D4000C43ED10509F05CC024C020915F0320FD92
:101D50001AC221FD18C21CC220915F0320FD0DC2D2
:101D60002091600320FF14C280915F0384FDB7C1FE
:101D700083EE90E00DC220915F0322FF09C2F4CFF1
:101D800080915F0382FDFCC18091600380FDFBC1F7
:101D9000EBCF2091600321FFFBC180915F0384FDA5
:101DA0009EC187EE90E0F4C120915F0323FFF0C154
:101DB000F4CF80915F0383FDE9C18091600381FFCF
:101DC000ECCF84EE90E0E4C120915F0325FFE0C1F9
:101DD00089E290E0DDC120915F0325FFD9C185E351
:101DE00090E0D6C120915F0326FFD2C18AE290E045
:101DF000CFC120915F0326FFCBC181E390E0C8C132
:101E0000C11530E5D30708F049C0C11540E4D40737
:101E100008F030C1C83ED10520F5C03ED10508F01C
:101E2000B7C1C83AD10570F4C53AD10508F0ADC0C4
:101E3000C130D10509F4ACC108F451C1249708F4AC
:101E40004EC1A6C1CF3BD10508F4AAC0C03CD10504
:101E500008F445C1CE01880F991FFC01EE57F040F0
:101E6000FEC0C11520E2D20760F4C11531E0D307EE
:101E700008F08EC1C03FD10508F431C1CE01906594
:101E800087C1C11540E3D40708F0ECC0CE019F70B4
:101E9000FC01EE0FFF1FEE5FFE4FE1C0C11585E5AF
:101EA000D80708F045C0C11594E5D90708F0FAC075
:101EB000C11522E5D20718F5C11531E5D30708F0A1
:101EC000DDC0CE0174E0969587957A95E1F7282FCD
:101ED00023703C2F337081E090E002C0880F991F7F
:101EE0003A95E2F79C68922BEC2FEF70E695E69519
:101EF00030E2E39FF00111248E2B9F2B49C1AE01EC
:101F0000437055272C2F26952695C115D34508F0EB
:101F1000BAC081E090E002C0880F991F4A95E2F7AD
:101F200040E2249F90011124822B932B9C6830C1A6
:101F3000C11599E5D90798F4C11528E5D20708F02D
:101F4000B6C0C11536E5D30708F0C9C08C2F0E9472
:101F50009D0B8F7190E0982F8827906219C1C11551
:101F60004AE5D40708F4A8C0CE01905681159042E6
:101F700008F0B5C08D2F8F710E949D0BFE01FF27C9
:101F8000F0628F719F01382BA8C0C53AD10509F4C2
:101F9000A9C0C63AD10509F0A8C082E890E4F8C00B
:101FA000C83AD10509F4A4C0C93AD10509F4A3C0BF
:101FB000CA3AD10509F4A2C0CB3AD10509F4A1C0AF
:101FC000CC3AD10509F4A0C0CB3BD10509F49FC0A0
:101FD000CC3BD10509F49EC0CD3AD10509F49DC092
:101FE000C03BD10509F49CC0CE3AD10509F49BC091
:101FF000CF3AD10509F49AC0C13BD10509F499C083
:10200000C23BD10509F498C0C33BD10509F497C080
:10201000C43BD10509F496C0C53BD10509F495C070
:10202000C63BD10509F494C0C73BD10509F493C060
:10203000C83BD10509F492C0C93BD10509F491C050
:10204000CD3BD10509F490C0CE3BD10509F48FC03A
:10205000CA3BD10509F48EC080E094E499C0859113
:10206000949196C0CE019927D3FF02C0986C90C07E
:10207000906C8EC0CE019F70906A8AC09C2F88277A
:10208000816F906A85C081E090E002C0880F991F3F
:102090004A95E2F740E2249F90011124822B932B72
:1020A0009A6876C09C2F8827846F906A71C09C2F95
:1020B0008827806F906A6CC08C2F8F700E949D0B58
:1020C000FE0194E0F695E7959A95E1F7EF70F0E060
:1020D000FE2FEE27F0699F01282BC90159C080E02F
:1020E00090E056C081E890E453C083E890E450C08B
:1020F00082EE94E44DC089EE94E44AC08AEE94E402
:1021000047C085EB94E444C086EB94E441C083EB84
:1021100094E43EC084EB94E43BC087EB94E438C085
:102120008CEC94E435C08DEC94E432C083E895E403
:102130002FC08AE895E42CC082E995E429C084E99F
:1021400095E426C081E296E423C083E296E420C0B1
:1021500084E296E41DC085E296E41AC086E296E425
:1021600017C087E296E414C08FE694E411C080E7BC
:1021700094E40EC08AE296E40BC089E390E008C0C4
:1021800082EE90E005C080EE90E002C086EE90E026
:10219000DF91CF9108950E94882B2FEF84E39CE07C
:1021A000215080409040E1F700C0000081E0809322
:1021B000E00080E28093D8001092C9008FE19EE495
:1021C0000197F1F700C0000087E090EBDC018093FD
:1021D000180490931904A0931A04B0931B049CE074
:1021E00088E10FB6F894A895809360000FBE909395
:1021F0006000FFCFFF920F931F93CF93DF93CDB774
:10220000DEB72E970FB6F894DEBF0FBECDBF0EE936
:1022100012E18BE0F82EF801659174914EE050E0E8
:10222000CE0101960E94F12DEE81FF8180818C30DC
:1022300061F4F082ED85FE85CE0101960995EE816F
:10224000FF8180818B3009F410820E5F1F4F85E182
:102250000230180701F72E960FB6F894DEBF0FBEB6
:10226000CDBFDF91CF911F910F91FF900895CF9235
:10227000DF92EF92FF920F931F93CF93DF93CDB72F
:10228000DEB72E970FB6F894DEBF0FBECDBF0EE9B6
:1022900012E185E0F82E98E0E92E2BE0D22E34E012
:1022A000C32EF801659174914EE050E0CE01019685
:1022B0000E94F12DEE81FF818081823069F4C0821D
:1022C000ED85FE85CE0101960995809168018823F0
:1022D00059F10E94FA1028C0863099F4E082ED8509
:1022E000FE85CE0101960995EE81FF8180818830BF
:1022F000D9F4D082EE81FF8180818B30A9F41082E5
:1023000013C0843089F4F082ED85FE85CE010196FC
:1023100009958091680181110E94FA100E94AF22F4
:102320009093D1028093D0020E5F1F4F85E102305F
:10233000180709F0B6CF2E960FB6F894DEBF0FBE81
:10234000CDBFDF91CF911F910F91FF90EF90DF9064
:10235000CF9008952F923F924F925F926F927F920B
:102360008F929F92AF92BF92CF92DF92EF92FF92A5
:102370000F931F93CF93DF93CDB7DEB7AE970FB612
:10238000F894DEBF0FBECDBF412C512C32014394D7
:1023900052E0252E55E1352EE1EBF2E080E090E0B1
:1023A0002191213009F082C1A301920104C0220FC2
:1023B000331F441F551F8A95D2F72BA73CA74DA763
:1023C0005EA78EE9C82E82E1D82E8601EE24E39422
:1023D0009AE0F92EF801659174914EE050E0CE013B
:1023E00001960E94F12D89809A80AB80BC808BA5DC
:1023F0009CA5ADA5BEA588219921AA21BB21892B29
:102400008A2B8B2B29F1E1EBF2E080E090E0B30125
:10241000A201082E04C0440F551F661F771F0A949F
:10242000D2F7482159216A217B21452B462B472B86
:1024300019F02081222361F0019631968E319105A9
:1024400031F7EE81FF818081893009F04DC1F08242
:102450000E5F1F4F2016310609F0BCCF3EE9832ED8
:1024600032E1932EA12CB12CF401659174914EE0D0
:1024700050E0CE010F960E94F12DEC89FD898081FC
:10248000813029F0873019F08A3009F040C02EE9F8
:10249000E22E22E1F22E00E010E0A016B10671F16A
:1024A000F701659174914EE050E0CE0101960E94D3
:1024B000F12D49815A816B817C818F859889A98909
:1024C000BA8984239523A623B72384179507A607E3
:1024D000B707A1F4EE81FF818081813009F4108279
:1024E000EE81FF818081873011F436E03083EE8108
:1024F000FF8180818A3011F449E040830F5F1F4FD4
:1025000052E0E50EF11C023361E0160731F67FEF71
:10251000A71AB70A82E0880E911C22E3A21621E0D6
:10252000B20609F0A1CF0EE912E1F80165917491AC
:102530004EE050E0CE014D960E94F12DEAA1FBA1A4
:1025400080818A3079F48BE08083E9A5FAA5CE01F9
:102550004D960995EAA1FBA180818B3009F072C0EC
:10256000108270C0813019F0873009F065C0109179
:102570006C0182E08083E9A5FAA5CE014D9609950C
:102580000E94AF229093D1028093D00289A59AA590
:1025900038E28039930729F480916C01811131C0B0
:1025A00051C0845C9842C1F303E0F60165917491D7
:1025B0004EE050E0CE0101960E94F12DEE81FF81A8
:1025C00080818230A9F48D859E8558E280399507F7
:1025D00019F0845C984261F40083ED85FE85CE019C
:1025E00001960995EE81FF818081833009F4108284
:1025F00072E0C70ED11C82E0C81685E1D806A9F6A4
:10260000CBCF1123F9F010926C01EAA1FBA184E079
:102610008083E9A5FAA5CE014D960995EAA1FBA113
:102620008081843011F489E080838091680188235F
:1026300049F00E94FA1006C00E5F1F4F20163106A7
:1026400009F073CFCD8CDE8CEF8CF8A03091CF02E7
:10265000A1EBB2E080E090E0B301A201082E04C03B
:10266000440F551F661F771F0A94D2F74C215D2136
:102670006E217F21452B462B472B81F04C911C92DC
:10268000E1EBF2E02081421710F4215020833196D3
:102690006FEC72E06E177F07A9F731500196119623
:1026A0008E319105C9F63093CF0276CE01968E31E8
:1026B000910509F075CEAE960FB6F894DEBF0FBE49
:1026C000CDBFDF91CF911F910F91FF90EF90DF90E1
:1026D000CF90BF90AF909F908F907F906F905F90C2
:1026E0004F903F902F9008959D8120910001921767
:1026F00011F09111ADCE811102C0E082A9CE8630D9
:1027000009F0A6CE27E02083A3CE7F928F929F92DE
:10271000AF92BF92CF92DF92EF92FF920F931F93EF
:10272000CF93DF93CDB7DEB763970FB6F894DEBFD4
:102730000FBECDBFFC01D080118183819481892B94
:1027400039F01F3F39F491E00FEFD01203C003C0FE
:1027500091E001C090E090FD7DC57F0185E0DE0144
:102760001F9601900D928A95E1F7F70122818F85DE
:102770009889222349F00E94E423082F682F8F852F
:1027800098890E945C2403C00E943124082FE12F05
:10279000F0E01EE0019FE00DF11D1124EE0FFF1F80
:1027A000EE0FFF1FED0DF11DEE0FFF1FE254FE4E69
:1027B0000591149168012EEFC21A2CE5D20A3EE170
:1027C000C316D10408F085C0F7018281882361F027
:1027D0008091CF028F5F8093CF020E5FE02FF0E0F9
:1027E000EF54FD4F808368C00E94AA11812C912C68
:1027F0005401839404C0880C991CAA1CBB1CCA9465
:10280000D2F70EE912E142E0E42E45E1F42E53E066
:10281000D52E66E0C62E7BE0772EF8016591749187
:102820004EE050E0CE0101960E94F12D89819A81FF
:10283000AB81BC8188219921AA21BB2188169906E8
:10284000AA06BB0699F5EE81FF818081823029F0CE
:1028500068F184508230E8F029C0D082ED85FE8591
:10286000CE0101960995EE81FF818081833049F484
:102870000E94AF229093D1028093D002EE81FF811B
:10288000C082EE81FF8180818C3081F00E94FA103D
:102890000DC07082ED85FE85CE0101960995EE8111
:1028A000FF8180818B3091F71082F0CF0E5F1F4F38
:1028B000E016F10609F0B1CF0E94AF229093D50245
:1028C0008093D4020E94AF229093D3028093D202CD
:1028D000C1C400334AE5140769F4F701408151810E
:1028E0006281738184810E94390E882309F4B2C405
:1028F00080E015C001338AE51807A0F001339AE59E
:10290000190709F0B7C0F7014081518162817381D5
:1029100084810E94390E882309F49CC481E00E94BE
:102920002D0E98C4C8019A558A9708F0A3C0D0907C
:102930005E03DD2021F0F1E0DF1659F156C0F7010A
:10294000408151816281738184810E94390EF80136
:10295000FF27EE5FFA4E9491A92FA295A695A69512
:10296000A370B0E0882369F09D012A523D4FF90120
:102970008081892B8083A452BD4F0C91E92FE02BDD
:1029800006C0AA52BD4FE92FE0950C91E023EC93CD
:102990002CC0F701408151816281738184810E9442
:1029A000390E482F802F67E00E943C2E292FE82FF8
:1029B000F0E086E090E0821B910921E030E001C068
:1029C000220F8A95EAF7DF01AA52BD4F442349F04E
:1029D0008C91822B8C93E452FD4F8081282B208395
:1029E00004C020958C9128232C93F70140815181BC
:1029F0006281738184810E94390E9091E202882362
:102A000011F09F5F03C0915019161CF49093E202DD
:102A100021C41092E202DD2079F0F1E0DF1227C03C
:102A20008091DC0280688093DC020CED12E092EE73
:102A3000E92E92E0F92E13C00CED12E020EEE22E0A
:102A400022E0F22EF80181918F0181110E94232250
:102A5000E016F106B9F780E00E94232208C0F801D1
:102A600081918F010E942322E016F106C1F70E9496
:102A70001E0EF0C3003FECE51E0739F426E241EEDE
:102A800060EEC7010E94A30DE5C3013FFCE51F07EF
:102A900008F044C0083D2CE5120721F427E245EE7A
:102AA00065EEEFCF093D3CE5130719F428E241E05C
:102AB000F7CF073D4CE5140721F426E241EE61EE25
:102AC000E0CFF7018281882309F45BC21092E30210
:102AD0000631FCE51F0709F4ABC358F401303CE5AF
:102AE000130709F46BC208F07CC201151C4579F587
:102AF00062C20E3D9CE5190709F469C248F40C3D19
:102B0000FCE51F0709F466C20D3D1C4501F565C2D1
:102B1000C801875F9C450797D0F463C2023F8CE5EC
:102B2000180721F426E241EE62EEABCF023F9CE5AE
:102B3000190720F427E245EE64EEA3CF033FECE54E
:102B40001E0709F0BECF27E245EE66EE9ACFF701E9
:102B500000811181C8010E94E423D82E682FC8018A
:102B60000E945C24B8018D2D0E945F0E082FD82E84
:102B7000F701358132953F702281211110920204B4
:102B8000F92EF2948FE0F8224F2D50E04C30510591
:102B900008F0EFC1FA01EA5AFF4F0C94482E892F32
:102BA000807F9F70192F882311F01295107F2223A8
:102BB000B9F0112309F4C9C180E2800F883010F008
:102BC000D11006C090910304192B1093030405C083
:102BD00090910204192B109302040E94C023B5C1E6
:102BE000802F0E94B42B112309F4C3C1005E1095FD
:102BF000083010F0D11006C09091030419231093EF
:102C0000030405C0909102041923109302040E944A
:102C1000C023AFC1492F407F892F8F70403211F000
:102C20008295807FF1E0DF120AC0222321F0333049
:102C300008F09FC108C0323008F09BC10DC02223AC
:102C400029F0311182C10E94AA2B93C1332321F0B4
:102C5000093309F08BC181C10E949F2B8AC1892F42
:102C600086958695837019F0813059F082C12223B0
:102C700019F0802F937002C080E090E00E94810DD7
:102C8000E9C2222319F0802F937002C080E090E007
:102C90000E946B0DDFC2892F837009F06CC0211177
:102CA0006DC1802F829586958770880F880F202FA1
:102CB0002F70C22ED12CE12CF12C082E04C0CC0C8C
:102CC000DD1CEE1CFF1C0A94D2F704FF12C00FE0BB
:102CD00010E020E030E004C0000F111F221F331F5E
:102CE0008A95D2F7B901A8014095509560957095E5
:102CF00003C040E050E0BA019695969593709230EB
:102D000029F1D8F4009104041091050420910604DF
:102D100030910704913069F0D701C601842B952BBF
:102D2000A62BB72BBC01CD016023712382239323F3
:102D30000AC0C02AD12AE22AF32ACB01BA016C299F
:102D40007D298E299F290E94D62418C1D701C6014A
:102D5000842B952BA62BB72B00910404109105040E
:102D60002091060430910704BC01CD016027712732
:102D700082279327E8CF222319F0892F817001C081
:102D80008695882309F4FAC0802F829586958770EE
:102D9000880F880F202F2F70C22ED12CE12CF12C00
:102DA000082E04C0CC0CDD1CEE1CFF1C0A94D2F7CC
:102DB00004FF12C00FE010E020E030E004C0000F7C
:102DC000111F221F331F8A95D2F7B901A801409520
:102DD00050956095709503C040E050E0BA0196951B
:102DE000969593709230E9F088F50091FD0310916B
:102DF000FE032091FF0330910004913069F0D70168
:102E0000C601842B952BA62BB72BBC01CD016023CB
:102E100071238223932320C0C02AD12AE22AF32AD5
:102E200015C0D701C601842B952BA62BB72B00917B
:102E3000FD031091FE032091FF0330910004BC01BB
:102E4000CD01602771278227932706C0CB01BA01E5
:102E50006C297D298E299F290E9486248FC0192FD5
:102E60001F70222339F0812F0E94B524802F0E94E9
:102E7000AA2B84C0802F0E949F2B812F0E94902418
:102E80007DC0802F41EFD416B1F14D1520F0E0EF59
:102E9000DE1641F056C0F2EFDF16A1F113EFD116A6
:102EA000C1F14FC0222319F1323008F062C0292F3E
:102EB0002F7181E090E0A0E0B0E0AC01BD0104C062
:102EC000440F551F661F771F2A95D2F78091FD0387
:102ED0009091FE03A091FF03B09100048A019B0131
:102EE000082719272A273B27C901B80127C03330F3
:102EF00008F03FC0DCCF222339F0892F8F710E9468
:102F0000B52437C02223C9F3892F8F710E949024E2
:102F100030C0222381F0292F2F7181E090E0A0E0C2
:102F2000B0E0BC01CD0104C0660F771F881F991F58
:102F30002A95D2F703C060E070E0CB010E9486249E
:102F400018C0222331F03323C1F2802F0E94102CAD
:102F500010C03323C9F2893349F41FEF27EE33E061
:102F6000115020403040E1F700C00000802F0E9447
:102F7000B42B88EF8F0D843008F06CC10E94970D40
:102F800069C10631FCE51F0709F444C150F401157D
:102F90003CE5130708F436C102301C4508F032C185
:102FA00059C10C3D8CE5180708F42CC10F3D1C4598
:102FB00008F028C14FC10E94CB104CC1809173030F
:102FC000982F909590FB80F98093730343C10E94E2
:102FD0005D2340C1109217033DC182E08093170327
:102FE00039C10E945223811102C00E945D230E94B8
:102FF00041239093600380935F030F303CE51307F8
:1030000009F4CDC008F042C008308CE5180709F477
:10301000A8C0F0F40430ECE51E0709F490C068F491
:1030200002302CE5120709F486C003301C4509F074
:10303000D9C080915F038260D3C006304CE514078D
:1030400009F487C008F089C080915F038860C8C018
:103050000B309CE5190709F493C068F40930FCE5CE
:103060001F0709F482C00A301C4509F0BBC08091DB
:103070005F0388607EC00D303CE5130709F484C00F
:1030800008F085C080915F038D7FAAC0073F8CE563
:10309000180709F457C050F50231ECE51E0709F492
:1030A00086C068F400312CE5120709F47CC00131B8
:1030B0001C4509F097C080915F038F7B91C004315C
:1030C0004CE5140709F483C008F475C005311C45AC
:1030D00009F088C080915F0382FB222720F991E0EC
:1030E000922790FB82F990FB83F97AC00A3FECE5C6
:1030F0001E0709F450C058F4083F2CE5120729F1C7
:10310000093F1C4509F06EC0809160035CC00C3F14
:103110004CE5140709F454C070F10D3F1C4509F04B
:1031200061C080916003982F909591708E7F892B5C
:1031300090FB81F949C080915F03816051C080910B
:103140005F0317C08091600319C0809160038260A3
:103150003BC080915F03806143C080915F038062C8
:103160003FC080915F0380643BC080915F038068B3
:1031700037C0846035C0809160038260816024C064
:1031800080915F038E7F2CC080915F0317C0809178
:103190005F03877F25C0809160038D7F15C080917C
:1031A0005F038F7E1DC080915F038F7D19C080916A
:1031B0005F038F7715C080915F03877F8B7F10C07F
:1031C000809160038D7F8E7F809360030BC0809120
:1031D0005F0387FB222720F991E0922790FB87F974
:1031E00080935F0360915F031091600384E090E03F
:1031F0000E94082E612F81E290E00E94082E0E941A
:10320000882B28C0F70100811181C8010E94312458
:10321000D82EA8CC8091E402811108C069E282E82E
:1032200093E00E94E4220E94C02314C065E3F7CF1C
:10323000809103048A7A91E009F490E09093E4028B
:10324000811106C069E282E893E00E940C23EBCF73
:1032500065E3F9CF63960FB6F894DEBF0FBECDBF1E
:10326000DF91CF911F910F91FF90EF90DF90CF9062
:10327000BF90AF909F908F907F9008951F93CF93B2
:10328000DF93CDB7DEB7AA970FB6F894DEBF0FBEB7
:10329000CDBFEBE0F3E08091F100819323E0E331D7
:1032A000F207C9F780910C03833009F460C030F451
:1032B000813071F0823009F49AC0B1C08A3009F4CB
:1032C00086C08B3009F46BC0893009F0A8C020C0DB
:1032D00080910B03813A09F0A2C08091E800877FBA
:1032E0008093E80080910F0390911003892B21F4C3
:1032F00060E288EE92E003C060E080E090E070E081
:103300000E949F1F8091E8008B778093E80087C020
:1033100080910B03813209F082C080910F0390915C
:103320001003892B09F07BC08091E800877F809390
:10333000E8008091E80082FD05C0809117048111AA
:10334000F8CF17C12091F3008091F20090E0922B0A
:10335000029729F48091F1008B7F813021F48091D4
:10336000F1008093E7028091E8008B7754C0809150
:103370000B03813A09F053C080910F039091100321
:10338000892B09F04CC08091E800877F8093E8008A
:103390008091E80080FFFCCF8091010137C08091CF
:1033A0000B038132E1F580910F0390911003892B7B
:1033B000B1F58091E800877F8093E8000E944B1F61
:1033C00080910D03809301010E94882B28C0809179
:1033D0000B03813221F58091E800877F8093E8001C
:1033E0000E944B1F80910E038093E60218C08091CB
:1033F0000B03813AA1F48091E800877F8093E80075
:103400008091E80080FFFCCF8091E6028093F1007C
:103410008091E8008E778093E8000E944B1F809196
:10342000E80083FFA6C080910E0190E020910F0379
:10343000309110032817390709F09BC080910C03C5
:10344000813261F020F4803209F441C092C08232AE
:1034500009F470C0833209F481C08BC080910B03E2
:10346000813A09F086C08091E800877F8093E80068
:103470008091E80080FFFCCF809122019091230190
:10348000A0912401B09125018093F100492F5A2F7A
:103490006B2F77274093F100AD0166277727409384
:1034A000F1008B2F9927AA27BB278093F1008091E9
:1034B00026018093F100809127018093F100809193
:1034C00028018093F1008091E8008E774EC08091B2
:1034D0000B03813209F04DC08091E800877F809313
:1034E000E8008091E80082FD05C0809117048111F9
:1034F000F8CF3FC03091F1002091F1009091F100A0
:103500008091F100309322012093230190932401B4
:10351000809325018091F100809326018091F10034
:10352000809327018091F100809328018091E80029
:103530008B771BC080910B038132D9F48091E80016
:10354000877F8093E8000E944B1F80910D0390912C
:103550000E0390931F0180931E010BC080910B03FB
:10356000813239F48091E800877F8093E8000E94DF
:103570004B1F8091E80083FFD1C180910B03909194
:103580000C03492F50E04A30510508F0C7C1FA0139
:10359000EE59FF4F0C94482E803821F0823809F004
:1035A000BDC108C08091080390910903992389F057
:1035B00082600FC080910F038F70873008F0AEC11A
:1035C0008093E9008091EB0085FB882780F91092B9
:1035D000E9009091E800977F9093E8008093F100D4
:1035E0001092F1005FC1282F2D7F09F097C1882329
:1035F00019F0823061F092C180910D03813009F0A1
:103600008DC1933009F080E0809309032EC0809132
:103610000D0381112AC080910F038F702FEF280FA7
:10362000263008F07BC18093E9002091EB0020FF59
:103630001CC0933021F48091EB00806214C0909103
:10364000EB0090619093EB0021E030E0A90102C013
:10365000440F551F8A95E2F74093EA001092EA0062
:103660008091EB0088608093EB001092E9008091DC
:10367000E800877F1AC1811151C110910D031F7796
:103680008091E3008078812B8093E3008091E800B3
:10369000877F8093E8000E944B1F8091E80080FFA5
:1036A000FCCF8091E30080688093E300111102C099
:1036B00082E001C083E08093170430C180588230DB
:1036C00008F02CC180910D0390910E038C3D53E0C6
:1036D000950779F583E08A838AE289834FB7F89466
:1036E000DE01139620E03EE051E2E32FF0E050933C
:1036F0005700E49120FF03C0E295EF703F5FEF7049
:103700008E2F90E0EA3010F0C79601C0C0968D93DE
:103710009D932F5F243149F74FBF8091E800877F49
:103720008093E8006AE270E0CE0101960E949F1F3C
:10373000A7C040910F0350911003292F3327233046
:103740003105A9F068F42130310509F4F6C02230C2
:10375000310509F0E3C08FE590E0E5EFF5E13DC00C
:103760002132310579F12232310581F1D7C0992713
:1037700081309105B9F070F082309105D9F003974E
:1037800009F0CCC0E6E6F6E1E4918E2F90E0E6E6A3
:10379000F6E120C0E4EAF6E1E4918E2F90E0E4EA5D
:1037A000F6E118C0ECE7F6E1E4918E2F90E0ECE74B
:1037B000F6E110C0ECE6F6E1E4918E2F90E0ECE645
:1037C000F6E108C0452B09F4BDC0A8C0452B09F49B
:1037D000BEC0A4C0009709F4A1C02091E800277FD3
:1037E0002093E80020911103309112038217930770
:1037F00008F49C0140E02115310589F180911704FE
:10380000882309F43DC08530D9F18091E80083FD1B
:1038100037C08091E80082FD2FC08091E80080FFD2
:10382000EACF4091F3008091F20090E0942B2115B3
:10383000310559F08830910540F444914093F100EE
:103840003196215031090196F2CF41E0089709F0F5
:1038500040E08091E8008E778093E800CCCF411162
:10386000CDCF0AC080911704882351F0853041F0F4
:103870008091E80083FD04C08091E80082FFF2CFD0
:103880008091E8008B778093E80048C0803809F089
:1038900045C08091E800877F8093E80080910A030B
:1038A0008093F1008091E8008E778093E8000E9479
:1038B0004B1F34C0811132C080910D0390910E03D3
:1038C000992702975CF58091E800877F8093E80054
:1038D00010910D0310930A030E944B1F1123C1F096
:1038E00084E08093170442E261EC81E00E946A1F49
:1038F00042E061EC82E00E946A1F42E160E884E0FD
:103900000E946A1F42E161E883E00E946A1F06C0CC
:103910008091E30087FDE4CF81E0E3CF8091E80070
:1039200083FF1AC08091E800877F8093E800809130
:10393000EB0080628093EB000FC082E190E0E4E551
:10394000F6E14BCF89E090E0E7E0F6E146CF83EB8C
:1039500090E0E2E4F5E141CFAA960FB6F894DEBF1D
:103960000FBECDBFDF91CF911F9108951F920F928F
:103970000FB60F9211242F933F934F935F936F9342
:103980007F938F939F93AF93BF93CF93DF93EF93E7
:10399000FF93C091E900CF708091EC00D82FD170D7
:1039A00080FDD0E81092E9008091F000877F80933D
:1039B000F00078940E943E191092E9008091F00086
:1039C00088608093F000CD2BCF70C093E900FF9109
:1039D000EF91DF91CF91BF91AF919F918F917F91A7
:1039E0006F915F914F913F912F910F900FBE0F906C
:1039F0001F901895E8EDF0E080818E7F8083109213
:103A0000E2001092DA001092E100A0EEB0E08C919A
:103A100081608C9380818F77808319BCA7EDB0E0A3
:103A20008C918E7F8C9380818F7E80831092E502B3
:103A30000895CF92DF92EF92FF920F931F93CF934F
:103A4000DF93C8EDD0E088818F7E8883E7EDF0E0DA
:103A500080818160808384E082BF81E08093E50281
:103A600088818E7F888302EE10E0F8011082109228
:103A7000DA0081EEC82ED12CF601108288818F7772
:103A8000888388818068888388818F7D888319BC3A
:103A90001092170410920A0310920903109208035F
:103AA00090EEE92EF12CF70180818B7F8083888155
:103AB0008160888342E060E080E00E946A1FF60136
:103AC00080818E7F8083F801808181608083808106
:103AD00088608083F70180818E7F80838881806108
:103AE0008883DF91CF911F910F91FF90EF90DF902E
:103AF000CF9008951F920F920FB60F9211242F931B
:103B00003F934F935F936F937F938F939F93AF9365
:103B1000BF93EF93FF938091E10082FF09C08091F2
:103B2000E20082FF05C08091E1008B7F8093E1007D
:103B30008091DA0080FF2AC08091D80080FF26C0E3
:103B40008091DA008E7F8093DA008091D90080FF27
:103B500018C080E189BD82E189BD09B400FEFDCFB6
:103B600081E0809317048091E50281110FC00E94CB
:103B7000FA1C0E94191D8091E20084608093E2008B
:103B800005C019BC109217041092E5028091E10063
:103B900080FF17C08091E20080FF13C08091E20097
:103BA0008E7F8093E2008091E20080618093E2004A
:103BB0008091D80080628093D80019BC85E0809302
:103BC00017048091E10084FF32C08091E20084FFFD
:103BD0002EC080E189BD82E189BD09B400FEFDCF20
:103BE0008091D8008F7D8093D8008091E1008F7EF6
:103BF0008093E1008091E2008F7E8093E2008091CB
:103C0000E20081608093E20080910A03882311F032
:103C100084E007C08091E30087FD02C081E001C01D
:103C200083E0809317040E94882B0E94970D809157
:103C3000E10083FF27C08091E20083FF23C08091D1
:103C4000E100877F8093E10082E080931704109267
:103C50000A038091E1008E7F8093E1008091E20071
:103C60008E7F8093E2008091E20080618093E20089
:103C700042E060E080E00E946A1F8091F00088606E
:103C80008093F000FF91EF91BF91AF919F918F9141
:103C90007F916F915F914F913F912F910F900FBE48
:103CA0000F901F9018952091E4003091E50095E663
:103CB0004091EC00842F817040FF23C08091E80088
:103CC00080FD1DC080911704882399F0853099F0FC
:103CD0008091EB0085FD11C04091E4005091E5001A
:103CE0002417350729F3915011F09A01E1CF84E0B0
:103CF000089582E0089583E0089581E0089580E0CA
:103D000008954091E80042FFDDCF08950895809125
:103D1000E7020895CF93DF9300D01F92CDB7DEB7AF
:103D20009C0190911703911105C080911704843074
:103D300049F504C0923011F0943021F584E0898374
:103D40003B832A8381E08093E9008FEF9091E80024
:103D5000815095FD06C095ED9A95F1F7000081110F
:103D6000F5CF8091E80085FF0DC040E050E063E0B2
:103D700070E0CE0101960E94C52D8091E8008E77FB
:103D80008093E8000F900F900F90DF91CF910895EE
:103D9000CF93DF9300D01F92CDB7DEB720911704E9
:103DA000243031F523E02983805891099B838A834D
:103DB00081E08093E9008FEF9091E800815095FDBC
:103DC00006C095ED9A95F1F700008111F5CF80912D
:103DD000E80085FF0DC040E050E063E070E0CE01F8
:103DE00001960E94C52D8091E8008E778093E800AF
:103DF0000F900F900F90DF91CF910895CF93DF93A5
:103E000020911703211103C02091170402C0223012
:103E100011F02430E9F520910101222331F02091A5
:103E20005F0327FF02C060E201C069E021E0209348
:103E3000E9002FEF3091E800215035FD06C035ED47
:103E40003A95F1F700002111F5CF2091E80025FF08
:103E50001FC0EC0180910101811107C040E050E0DA
:103E600068E070E0CE01019604C070E040E050E0F0
:103E7000CE010E94C52D8091E8008E778093E800E6
:103E800080E2FE01A8EEB2E001900D928A95E1F782
:103E9000DF91CF91089580910B0387FF11C080912E
:103EA000E80082FD05C0809117048111F8CF11C090
:103EB0008091E8008B770BC080911704882349F02C
:103EC0008091E80080FFF8CF8091E8008E778093A2
:103ED000E8000895982F973068F59093E9009817B7
:103EE00039F07091EC002091ED005091F00003C08A
:103EF000242F762F50E021FD02C09F5FECCF309140
:103F0000EB003E7F3093EB003091ED003D7F30932E
:103F1000ED003091EB0031603093EB007093EC00DA
:103F20002093ED005093F0002091EE0027FDE5CFA7
:103F300080E008958F708093E90081E008952091DA
:103F40001103309112032617370748F061157105E8
:103F500039F42091E8002E772093E80001C0B901E0
:103F6000FC0120E06115710579F180911704882327
:103F7000F1F18530F1F18091E80083FD3CC0809142
:103F8000E80082FD2EC08091E80080FFEBCF2091F9
:103F9000F3008091F20090E0922B6115710551F0D1
:103FA0008830910538F421912093F1006150710916
:103FB0000196F3CF21E0089709F020E08091E80016
:103FC0008E778093E800CECF2111CFCF0AC08091A9
:103FD0001704882361F0853061F08091E80083FD4B
:103FE0000AC08091E80082FFF2CF80E0089582E06D
:103FF000089583E0089581E00895CF93DF93CDB7CE
:10400000DEB72D970FB6F894DEBF0FBECDBF84B7D5
:10401000877F84BF0FB6F894A8958091600088616F
:1040200080936000109260000FBE80E88093610072
:104030001092610085B7806885BF85B7806885BFAD
:104040000E94FA1C0E94191D8091E20084608093F6
:10405000E2007894809117048823A1F01091E90080
:104060001F709091EC00892F817090FD80E8182BD3
:104070001092E9008091E80083FD0E943E191F70B4
:104080001093E90082E084BD93E095BD9AEF97BD5F
:1040900080936E000E94132A90E090930301809316
:1040A00002010E947E2A0E948D2A80E593E0E8E1C9
:1040B000F3E044E653E0DA011D92AD01DC011D920C
:1040C000CD0110821182128213823496B3E04237FE
:1040D0005B0789F70E945223811102C00E945D2371
:1040E00081E00E942D0E3F988AB18F708AB96E9838
:1040F000479A8BB1806F8BB9769A0E9452238111B7
:1041000002C00E945D2382E090E00E94FA2D80931D
:1041100073030E9441239093600380935F0383E0C5
:1041200090E00E94FA2D682F70E080E090E00E94FD
:10413000D6240E945223811102C00E945D238DE08B
:1041400090E00E94FA2D80935E0380915F03806867
:1041500080935F0384E091E0909362038093610316
:1041600082E090E0909321018093200180911704D8
:10417000843079F58091220190912301A09124014E
:10418000B0912501892B8A2B8B2B19F18091190174
:104190008F708093E90088E0E9E2F1E0DE0111969A
:1041A00001900D928A95E1F740E050E068E070E000
:1041B000CE0101960E94C52D40E050E062E070E023
:1041C00080E291E00E94C52D8091E8008E77809377
:1041D000E80099249A94EE24E394F12C90E1792E4E
:1041E00022E1622E38E1C32ED12C40E4842E80914E
:1041F0001704853009F047C080911704843009F115
:10420000109263030FB6F894A895C09260000FBE99
:104210008092600083B7817F846083BF83B78160B1
:1042200083BF7894889583B78E7F83BF0FB6F89449
:10423000A895809160008861809360001092600072
:104240000FBE80910903882391F20E94132A90E007
:1042500090930301809302010E947E2A0E948D2A7E
:10426000E4E6F3E0119223E0E237F207D9F70E9487
:10427000942AE4E6F3E081918111D1C083E0E23732
:10428000F807C9F7B4CF0E94942AE4E7F3E0A4E664
:10429000B3E000E010E0702F6D9121912627A9F185
:1042A00080E090E030E0A901082E02C055954795C6
:1042B0000A94E2F740FF25C089837A83D70102C0C0
:1042C000AA0FBB1F8A95E2F75D01862F90E08A2333
:1042D0009B2321E0892B09F420E02B830E94AF224D
:1042E0008160782F9D838C8349815A816B818D8178
:1042F0000E94CF0CF801EC58FC4F8081A826A082C8
:1043000019C001968430910571F60F5F1F4F0E3072
:10431000110509F0C0CF99869A861B860E94AF22AC
:104320008160782F9D878C8749855A856B858D851F
:104330000E94CF0C0E94970D90917203891721F073
:104340000E94970D8093720380911704843009F0C6
:1043500046C08091220190912301A0912401B09147
:104360002501892B8A2B8B2BD1F1209114012F70E1
:104370002093E9008091E80082FF31C03091F30082
:104380008091F20090E0932B892B21F13091F30082
:104390008091F20090E0932B892B09F18091170412
:1043A0008430E9F42093E9008091E80082FF17C08F
:1043B0002091F3008091F20090E0922B892B11F074
:1043C0008091F1002091F3008091F20090E0922B17
:1043D000892B29F48091E8008B778093E800809105
:1043E0001704843009F003CF8091220190912301BA
:1043F000A0912401B0912501892B8A2B8B2B09F4E4
:10440000F6CE80910F018F708093E9008091E800D3
:1044100080FFEDCE8EE091E00E94922DE8CE79BC37
:1044200069BC09B400FEFDCF8091D8008F7D8093D8
:10443000D8008091E00082608093E0008091E000ED
:1044400081FDFCCFD4CECF93C091E9002091EC0048
:10445000922F917020FD90E820911E0120FF2DC029
:10446000CF70C92B90910F019F709093E9009091AC
:10447000EB0090FF1FC09091EE0097FF1BC09FEFD5
:104480002091E800915025FD06C025ED2A95F1F711
:1044900000009111F5CF8093F1008EE091E00E9431
:1044A000922D8091E80080FF05C08091E8008E7712
:1044B0008093E800CF70C093E900CF91089578947D
:1044C0001F920F920FB60F9211248F939F93AF9369
:1044D000BF938091130390911403A0911503B091A1
:1044E00016030196A11DB11D80931303909314032D
:1044F000A0931503B0931603BF91AF919F918F9135
:104500000F900FBE0F901F901895CF92DF92EF92F1
:10451000FF920F931F932FB7F8944091130350917C
:10452000140360911503709116032FBF6A017B017C
:10453000EE24FF248C0120E030E0C016D106E20614
:10454000F30610F4415051099A01281B390BC90197
:104550001F910F91FF90EF90DF90CF9008952FB7AC
:10456000F8948091130390911403A0911503B091D6
:1045700016032FBF08951F920F920FB60F921124AA
:104580008F939F93AF93BF9380916303811113C067
:104590008091130390911403A0911503B091160319
:1045A0004196A11DB11D8093130390931403A09312
:1045B0001503B0931603BF91AF919F918F910F9008
:1045C0000FBE0F901F901895209101012223C9F072
:1045D00020915F0327FF15C0262F26952695269547
:1045E0002E31C8F4FC01E20FF11D677081E090E00C
:1045F00001C0880F6A95EAF78095928189238283AA
:104600000895FC0106962381621301C0138231963E
:10461000E817F907C1F70895209101012223C1F09D
:1046200020915F0327FF14C0262F269526952695F7
:104630002E3130F5FC01E20FF11D677081E090E052
:1046400001C0880F6A95EAF79281892B82830895C9
:10465000FC0133962FEF30E04191641789F02F3F32
:1046600019F4411101C0232F3F5F3630A9F72F3FC6
:1046700039F0FC01E20FF11D27FDFA9563830895DF
:104680000895CF9384E090E00E94FA2DC82F81E234
:1046900090E00E94FA2D2C2F30E0A901582BCA017E
:1046A000CF91089580E090E00E94022E21E08C3EA0
:1046B0009E4F09F020E0822F08956CEE7EEF80E09F
:1046C00090E00E94262E60E082E090E00E94082E9A
:1046D00060E083E090E00E94082E109204041092A3
:1046E0000504109206041092070460E084E090E054
:1046F0000E94082E60E081E290E00E94082E60E0B7
:1047000085E090E00E94082E60E086E090E00E9444
:10471000082E6FEF87E090E00E94082E40E050E006
:10472000BA0188E090E00E941A2E60E08DE090E0EF
:104730000E94082E40E050E0BA0188E190E00E941B
:104740001A2E60E087E190E00E94082E40E050E0E1
:10475000BA018CE190E00E941A2E60E080E290E0C5
:104760000E94082E40E050E0BA018FE090E00E94E5
:104770001A2E40E050E0BA0183E190E00C941A2E2A
:104780009091030480910204892B90910104892B5C
:1047900080938303E0916103F0916203309799F075
:1047A00080910101882331F080915F0387FF02C06F
:1047B00085E001C081E0809382030280F381E02DD7
:1047C00082E893E009940895BF92CF92DF92EF922E
:1047D000FF920F931F93CF93DF938C01C090FD0343
:1047E000D090FE03E090FF03F09000048091040459
:1047F00090910504A0910604B0910704C82AD92A13
:10480000EA2AFB2ACFE1D0E0D701C6010C2E04C072
:10481000B695A795979587950A94D2F780FD04C021
:10482000219790F7B12C07C0BC2EB8018C2F0E94A5
:104830005F0E0197A9F38B2DDF91CF911F910F91FF
:10484000FF90EF90DF90CF90BF900895CF93DF93CC
:10485000EC010E94E423BE010E945F0EDF91CF9124
:104860000895990F990F890F682F6695669566953B
:10487000982F977085E0689FB001112440E050E0C8
:1048800080E0FB01E40FF51FE652FC4F208130E091
:10489000092E02C0369527950A94E2F72170332736
:1048A000042E01C0220F0A94EAF7822B4F5F5F4F5C
:1048B0004530510531F70895990F990F890FE82F69
:1048C000E695E695E695877051E001C0550F8A950B
:1048D000EAF785E0E89FF0011124E652FC4F20E062
:1048E00030E070E04081CB01022E02C096958795A2
:1048F0000A94E2F781708195842785238427819328
:104900002F5F3F4F2530310569F708956093FD0310
:104910007093FE038093FF03909300040C947A2B12
:104920000F931F9341E050E060E070E004C0440F3B
:10493000551F661F771F8A95D2F740955095609551
:1049400070958091FD039091FE03A091FF03B091BB
:1049500000048A019B01082319232A233B23C90150
:10496000B8011F910F910C9486240F931F9341E07F
:1049700050E060E070E004C0440F551F661F771FD1
:104980008A95D2F78091FD039091FE03A091FF03D9
:10499000B09100048A019B01082B192B2A2B3B2B79
:1049A000C901B8011F910F910C94862460930404EF
:1049B0007093050480930604909307040C947A2B5B
:1049C0008091D9039091A803891719F08F5F8770A0
:1049D000FBCF0895CF938091A70382958F7009F044
:1049E0005FC08091A403882309F45AC08091D90341
:1049F000B091A8037091A203A091A3034091A503D5
:104A00005091A60391E07F3F09F090E0692FC6E046
:104A10008B1709F445C04115510521F0AF3F21F036
:104A200020E003C021E001C0262F90E020FD35C02A
:104A3000C89FF001C99FF00D1124E755FC4F21815B
:104A40002A132BC02081271328C02281211125C0C1
:104A5000238134812417350710F421503109241B98
:104A6000350B283C3105C8F42091A7032F70206135
:104A70002093A70326E0289FF001299FF00D112421
:104A8000E255FC4F80818F708061808382EA93E0E1
:104A90000E948513CF910C94E02401968770B8CFC3
:104AA000CF910895AF92BF92CF92DF92EF92FF9293
:104AB0000F931F93CF93DF93CDB7DEB761970FB6F8
:104AC000F894DEBF0FBECDBF8C0185E0F801DE019A
:104AD0001D9601900D928A95E1F7D8013C911196AF
:104AE0002C9111971296EC905091A2036091A30320
:104AF0008091A5039091A603009731F06F3F31F4A8
:104B000041E05F3F19F403C041E001C040E0B42F31
:104B1000B170BB2E40FD43C1F801C380D480A0908A
:104B2000A403AA2009F4E2C04091A703C816D9063D
:104B300028F0D601A81BB90BCD0104C08095909533
:104B40008C0D9D1DFF24F394883C910548F0F12CB9
:104B5000407F09F090C082EA93E00E94851317C15C
:104B6000842F807F09F052C0621312C0531310C00B
:104B7000FE2CE1100DC04F7040614093A70382EA04
:104B800093E00E9485138091A703F801858348C1B3
:104B9000CD2831F02F3F31F481E03F3F19F403C0BD
:104BA00081E001C080E080FD03C081E08E2502C06D
:104BB00080E090E0F82FF170FF2E80FF1CC0809104
:104BC000D9034091A80356E0841709F406C190E088
:104BD000589FF001599FF00D1124E755FC4F61815A
:104BE000261306C06081361303C06281E61203C03B
:104BF00001968770E9CFFE2CEE2009F411C1809157
:104C0000A70381608093A703F12C0AC1621308C037
:104C1000531306C0E11004C08091A703F80199C0A6
:104C20003D872E878D859E850E94512B882369F1B3
:104C3000EE2059F12091A703822F82958F7090E08A
:104C4000029774F08091A2039091A30398878F83B9
:104C50001986DB86CA862C87CE0107960E948513AB
:104C600086E0F801A2EAB3E001900D928A95E1F79F
:104C70000E94EA240DC0621771F03D872E878D8552
:104C80009E850E94512B81111AC0C8010E94851374
:104C9000FF24F394C5C05313F0CFE110EECF809101
:104CA000A703F8018583C8010E94851386E0E2EA24
:104CB000F3E0DF011D928A95E9F7FA2CB1C0EE20EE
:104CC00021F32091A703822F82958F7090E00297A5
:104CD0003CF28091A2039091A3039A8389831B8263
:104CE000DD82CC822E83CE010196B8CFC816D906BC
:104CF00038F0C81AD90AB8ECCB16D10450F007C066
:104D0000809590958C0D9D1D883C910510F0F12C9F
:104D10003EC0FE2CEE2009F4B8CF621327C0531317
:104D200025C02091A70320FD18C0822F82958F7087
:104D3000482F50E04115510581F0F80125834F308F
:104D4000510541F08F5F982F9295907F822F8F7041
:104D5000892B8583C8010E94851386E0F801A2EAA9
:104D6000B3E001900D928A95E1F75AC03D872E87F6
:104D70008D859E850E94512B811172CF8091A70352
:104D800081608093A703C8010E94851349C0E2EAAD
:104D9000F3E086E0DF011D928A95E9F741C0EE203D
:104DA00009F473CF3D872E878D859E850E94512BF8
:104DB000F82E882309F469CF86E0F801A2EAB3E06F
:104DC00001900D928A95E1F78091A2039091A3033F
:104DD0000E9426240E94EA2423C03D872E878D85C9
:104DE0009E850E942624292F22952F70223028F498
:104DF0009F7039F0811105C00BC0243028F49F70DA
:104E000049F4805E883020F0C8010E948513BF2CD1
:104E1000FB2C06C0D80115969C91907F91F7F8CF96
:104E20008F2D61960FB6F894DEBF0FBECDBFDF9118
:104E3000CF911F910F91FF90EF90DF90CF90BF9097
:104E4000AF900895DC011596ED91FC911697808145
:104E5000823019F481E080936A010895DC0115968F
:104E6000ED91FC9116978081823029F480916B013D
:104E70008F5F80936B010895DC011596ED91FC9195
:104E800016972081223021F419968C91809300018D
:104E90000895FC01A581B6818C91833031F08B306F
:104EA00021F0823029F4818501C084818093000142
:104EB0000895DC011596ED91FC9116978081843060
:104EC00049F018F4823031F00895883019F08B30B1
:104ED00059F0089581EE0E94102C80EE0E94102C53
:104EE00080E50E94102C09C081EE0E94B42B80EE58
:104EF0000E94B42B80E50E94B42B0C94C023DC01EB
:104F00001596ED91FC9116978081843049F018F444
:104F1000823031F00895883019F08B3041F00895D7
:104F200080EE0E94102C83EE0E94102C06C080EEB2
:104F30000E94B42B83EE0E94B42B0C94C023DC019E
:104F40001596ED91FC9116978081843049F018F404
:104F5000823031F00895883019F08B3041F0089597
:104F600084EE0E94102C87EE0E94102C06C084EE66
:104F70000E94B42B87EE0E94B42B0C94C023DC015A
:104F80001596ED91FC9116978081843049F018F4C4
:104F9000823031F00895883019F08B3041F0089557
:104FA00080EE0E94102C82EE0E94102C06C080EE33
:104FB0000E94B42B82EE0E94B42B0C94C0230C945C
:104FC000BF27DC011596ED91FC9116978081843006
:104FD00049F018F4823031F00895883019F08B30A0
:104FE00041F0089584EE0E94102C86EE0E94102C51
:104FF00006C084EE0E94B42B86EE0E94B42B0C9463
:10500000C0230C94E127DC011596ED91FC911697D5
:105010008081823011F40C94CB100895FC01A5819D
:10502000B6818C91823081F481E090E0A0E0B0E024
:10503000BC01CD01018404C0660F771F881F991F32
:105040000A94D2F70C9486240895CF9330916B0183
:10505000313091F420911604253070F4E22FF0E005
:10506000EE0FFF1FE45FFB4F918380832F5F209340
:1050700016043093680133C020916A01222341F065
:1050800020910B04253020F42F5F20930B0424C0C3
:1050900020916901222341F020910A04243120F457
:1050A0002F5F20930A0418C09C012E5132402B31EF
:1050B000310570F4F901EF5CFE4FC081F901E45B4A
:1050C000FE4F2081222321F081EE0E94102C8C2F94
:1050D0000E94102C0E94C02381E080936801CF9130
:1050E000089520916B0121111AC0AC019C012E5131
:1050F00032402B31310588F4F901EF5CFE4F80819D
:10510000F901E45BFE4F9081992339F00E94B42BA2
:1051100081EE0E94B42B0C94C023842FFACF089503
:105120000F931F93CF93DF93EC01ED81FE8180817C
:10513000833051F08B3041F0823009F58B858093BC
:105140000001109268011BC080916801811111C09B
:1051500009851A85C8010E9425282FEF80E792E073
:10516000215080409040E1F700C00000C8010E943B
:1051700071288C8180930001ED81FE811082DF9186
:10518000CF911F910F9108950F931F93CF93DF93AA
:10519000FC01A581B6818C91843029F1C0F4833063
:1051A00051F5EF0101851285C8010E9425282FEFD6
:1051B00080E792E0215080409040E1F700C000007D
:1051C000C8010E947128ED81FE81108214C08830D0
:1051D00051F08B3081F4838590E0DF91CF911F9166
:1051E0000F910C947128838590E0DF91CF911F91EE
:1051F0000F910C942528DF91CF911F910F91089565
:10520000CF93DF93FC01A581B6818C91833051F05F
:105210008B3089F08230A9F481859285DF91CF911E
:105220000C942528EF01818592850E947128ED81DB
:10523000FE81108206C081859285DF91CF910C940A
:105240007128DF91CF910895CF93E82F873058F5DB
:105250008091020190910301892B09F042C0CE2F69
:1052600080E40E94212D9093030180930201892BF9
:10527000B1F482E10E946B2D9093030180930201AF
:10528000892B69F481E090E001C0880FCA95EAF7A4
:1052900080950E946B2D909303018093020184E915
:1052A0008093BC001EC090E0FC013797E730F10509
:1052B000C0F4E459FF4F0C94482E209A289811C04E
:1052C000219A29980EC0229A2A980BC0239A2B98CB
:1052D00008C0529A5A9805C0539A5B9802C03E9AE9
:1052E0004698CF910895EF92FF920F931F93CF931B
:1052F000DF93C82F873008F047C08091020190915A
:105300000301892B09F04DC080E40E94212D909368
:10531000030180930201892B11F090E031C083E1F9
:105320000E946B2D9093030180930201892BA9F7B2
:1053300081E40E94212D9093030180930201892B27
:1053400061F784E88093BC000E94AF228C018091B9
:10535000BC0087FD0EC00E94AF22801B910B883ECF
:105360009340A8F38EEF9FEF909303018093020187
:10537000D4CF9091BB00909510920301109202013E
:1053800084E98093BC000EC09FB18FB191FB2227AE
:1053900020F9982F9077969596959695922B9095C3
:1053A00001C090E0EC2FF0E0DF01A05BBC4F6C91FE
:1053B00069279C93DF01AA0FBB1FAA0FBB1FA85E22
:1053C000BC4F40E050E020E0C1E0D0E070E085E07C
:1053D000142F3C91332319F031503C9307C07E01C8
:1053E000042E01C0EE0C0A94EAF72E297B0102C0BC
:1053F000F594E7941A95E2F7E0FC8C934F5F5F4FCA
:1054000011964430510521F7EC59FC4F322F30955D
:10541000808183239223892BDF91CF911F910F915C
:10542000FF90EF90089580E290E0909303018093C5
:10543000020180910904811111C01092B9008CE021
:105440008093B80081E0809309042FEF83ED90E30F
:10545000215080409040E1F700C0000080E40E94AD
:10546000212D9093030180930201892B09F040C004
:1054700080E00E946B2D9093030180930201892BA1
:10548000B9F580E80E946B2D90930301809302018F
:10549000892B71F58FEF0E946B2D90930301809300
:1054A0000201892B29F584E98093BC0080E40E94E5
:1054B000212D9093030180930201892BC9F48CE084
:1054C0000E946B2D9093030180930201892B81F43C
:1054D00080E80E946B2D9093030180930201892B39
:1054E00039F48FEF0E946B2D90930301809302019A
:1054F00084E98093BC0080910201089584B1807F8B
:1055000084B985B1807F85B93E9846988AB1837FFA
:105510008AB98BB1837F8BB9089580B38D7880BBB6
:1055200081B3826781BB0895CF92DF92EF92FF92A1
:105530000F931F93CF93DF9380910201909103010A
:10554000892B71F0809108048F5F8093080481118A
:1055500007C00E94132A90E09093030180930201F8
:1055600004E613E0C0E08C2F0E942429D7E0DC0F72
:105570008D2F0E9424298C2F0E947329F80181937A
:105580008F018D2F0E947329F80186830E947E2A45
:10559000CF5FC73041F78091D4029091D5020E942D
:1055A00085228C018091D0029091D1020E948522A7
:1055B000EC018091D2029091D3020E9485226C016D
:1055C0000536110558F0E1EBF2E08FEC92E0219105
:1055D000213009F459C08E179F07C9F7C93CD1057E
:1055E00010F00E94371180916B01823009F040C0A9
:1055F00010926B01CCE0D4E086E1E82E84E0F82E36
:105600008E01F801819191918F01009711F00E9414
:10561000102C0E94C023E016F10699F7FFEF20E757
:1056200082E0F15020408040E1F700C00000899105
:105630009991009711F00E94B42B0E94C023EC16A0
:10564000FD06A9F710920D0410920C0410920F049D
:1056500010920E0410921104109210041092130470
:105660001092120410921504109214041092160451
:105670009FEEC91692E0D90650F080916A01882306
:1056800031F010926A0103C00E94AA11A7CF81E0F5
:10569000DF91CF911F910F91FF90EF90DF90CF900E
:1056A00008950E942624292F2F70E92FE295EF708C
:1056B0004E2F50E0FA013297EE30F105B8F4ED5874
:1056C000FF4F0C94482E803F99F018F4883E70F4F8
:1056D0000FC0843F59F40CC0883E50F0813F31F434
:1056E00007C0822F869586958695089580E0089557
:1056F00081E0089510920204109201040E94C023D8
:1057000080E090E00E94810D80E090E00C946B0DB1
:105710001092030480910101882341F080915F037E
:1057200087FF04C08EE1E4E8F3E003C086E0E5E82B
:10573000F3E0DF011D928A95E9F70C947A2B882318
:1057400041F08095909103048923809303040C9485
:10575000C0230895882339F090910304892B809306
:1057600003040C94C0230895882309F458C0682FBB
:10577000823869F40E94970D81FF51C069E382E885
:1057800093E00E940C230E94C02369E30EC083387B
:1057900091F40E94970D80FF42C063E582E893E098
:1057A0000E940C230E94C02363E582E893E00E94DC
:1057B000E4220C94C023843869F40E94970D82FF80
:1057C0002EC067E482E893E00E940C230E94C0236D
:1057D00067E4EBCF8CEF860F813A38F380E2860FD7
:1057E000883070F4677081E090E001C0880F6A959E
:1057F000EAF7809590910304892380930304D9CF1D
:105800008BE5860F833020F480E090E00C94810DCE
:10581000685A673120F480E090E00C946B0D089595
:10582000882309F40DC1682F8238B1F40E94970DC6
:1058300081FD06C169E382E893E00E940C230E9487
:10584000C0232FEF81EE94E0215080409040E1F79B
:1058500000C0000069E317C08338D9F40E94970D97
:1058600080FDEEC063E582E893E00E940C230E9475
:10587000C0232FEF81EE94E0215080409040E1F76B
:1058800000C0000063E582E893E00E94E4220C94EB
:10589000C0238438B1F40E94970D82FDD1C067E423
:1058A00082E893E00E940C230E94C0232FEF81EE38
:1058B00094E0215080409040E1F700C0000067E490
:1058C000E2CF8CEF860F813A28F482E893E00E94C1
:1058D0000C23DDCF80E2860F883068F4677081E0AA
:1058E00090E001C0880F6A95EAF790910304892B34
:1058F00080930304CCCF8BE5860F833070F4653A38
:1059000029F0663A31F083E890E005C081E890E044
:1059100002C082E890E00C94810D88E5860F873103
:1059200008F08EC0683A09F445C0693A09F445C0E8
:105930006A3A09F445C06B3A09F445C06C3A09F477
:1059400045C06B3B09F445C06C3B09F445C06D3A5A
:1059500009F445C0603B09F445C06E3A09F445C0FE
:105960006F3A09F445C0613B09F445C0623B09F454
:1059700045C0633B09F445C0643B09F445C0653B41
:1059800009F445C0663B09F445C0673B09F445C0CE
:10599000683B09F445C0693B09F445C06D3B09F417
:1059A00045C06E3B09F445C06A3B09F445C080E040
:1059B00090E044C082EE90E041C089EE90E03EC0AD
:1059C0008AEE90E03BC085EB90E038C086EB90E03B
:1059D00035C083EB90E032C084EB90E02FC087EBC2
:1059E00090E02CC08CEC90E029C08DEC90E026C0BB
:1059F00083E891E023C08AE891E020C082E991E049
:105A00001DC084E991E01AC081E292E017C083E2F0
:105A100092E014C084E292E011C085E292E00EC0F0
:105A200086E292E00BC087E292E008C08FE690E049
:105A300005C080E790E002C08AE292E00C946B0D12
:105A400008950F931F93CF93DF93C82F1092BC003C
:105A500084EA8093BC000E94AF228C018091BC003C
:105A600087FD0AC00E94AF22801B910B883E9340A5
:105A7000A8F38EEF9FEF2AC08091B900887F88300D
:105A800041F08091B900887F803119F08FEF9FEF4E
:105A90001DC0C093BB0084E88093BC000E94AF226D
:105AA000EC018091BC0087FD08C00E94AF228C1BD6
:105AB0009D0B883E9340A8F3DCCF8091B900887F8E
:105AC000883111F0803411F780E090E0DF91CF91C0
:105AD0001F910F910895CF93DF938093BB0084E8CB
